{"project/contracts/ActionLog.sol":{"ActionLog":{"abi":[{"anonymous":false,"inputs":[{"indexed":true,"internalType":"uint256","name":"actionId","type":"uint256"},{"indexed":true,"internalType":"address","name":"actor","type":"address"},{"indexed":false,"internalType":"bytes32","name":"taskHash","type":"bytes32"},{"indexed":false,"internalType":"string","name":"result","type":"string"}],"name":"ActionLogged","type":"event"},{"inputs":[{"internalType":"uint256","name":"","type":"uint256"}],"name":"actions","outputs":[{"internalType":"address","name":"actor","type":"address"},{"internalType":"bytes32","name":"taskHash","type":"bytes32"},{"internalType":"string","name":"result","type":"string"},{"internalType":"uint64","name":"timestamp","type":"uint64"}],"stateMutability":"view","type":"function"},{"inputs":[],"name":"count","outputs":[{"internalType":"uint256","name":"","type":"uint256"}],"stateMutability":"view","type":"function"},{"inputs":[{"internalType":"bytes32","name":"taskHash","type":"bytes32"},{"internalType":"string","name":"result","type":"string"}],"name":"logAction","outputs":[{"internalType":"uint256","name":"actionId","type":"uint256"}],"stateMutability":"nonpayable","type":"function"}],"evm":{"bytecode":{"linkReferences":{},"object":"608060405234801561000f575f80fd5b5061053d8061001d5f395ff3fe608060405234801561000f575f80fd5b506004361061003f575f3560e01c806306661abd1461004357806383240f831461005f578063f3191ecd14610082575b5f80fd5b61004c60015481565b6040519081526020015b60405180910390f35b61007261006d366004610241565b610095565b604051610056949392919061029b565b61004c6100903660046102f0565b610157565b5f602081905290815260409020805460018201546002830180546001600160a01b039093169391926100c6906103a5565b80601f01602080910402602001604051908101604052809291908181526020018280546100f2906103a5565b801561013d5780601f106101145761010080835404028352916020019161013d565b820191905f5260205f20905b81548152906001019060200180831161012057829003601f168201915b5050506003909301549192505067ffffffffffffffff1684565b6001805481018082556040805160808101825233815260208082018781528284018781524267ffffffffffffffff1660608501525f8681529283905293909120825181546001600160a01b0319166001600160a01b0390911617815590519481019490945590519192909160028201906101d1908261042b565b50606091909101516003909101805467ffffffffffffffff191667ffffffffffffffff909216919091179055604051339082907fb6e9c3abef6ccdba8c471cd6d84648c179378631a585153d297ead2536bb95db9061023390879087906104e7565b60405180910390a392915050565b5f60208284031215610251575f80fd5b5035919050565b5f81518084525f5b8181101561027c57602081850181015186830182015201610260565b505f602082860101526020601f19601f83011685010191505092915050565b60018060a01b0385168152836020820152608060408201525f6102c16080830185610258565b905067ffffffffffffffff8316606083015295945050505050565b634e487b7160e01b5f52604160045260245ffd5b5f8060408385031215610301575f80fd5b82359150602083013567ffffffffffffffff8082111561031f575f80fd5b818501915085601f830112610332575f80fd5b813581811115610344576103446102dc565b604051601f8201601f19908116603f0116810190838211818310171561036c5761036c6102dc565b81604052828152886020848701011115610384575f80fd5b826020860160208301375f6020848301015280955050505050509250929050565b600181811c908216806103b957607f821691505b6020821081036103d757634e487b7160e01b5f52602260045260245ffd5b50919050565b601f821115610426575f81815260208120601f850160051c810160208610156104035750805b601f850160051c820191505b818110156104225782815560010161040f565b5050505b505050565b815167ffffffffffffffff811115610445576104456102dc565b6104598161045384546103a5565b846103dd565b602080601f83116001811461048c575f84156104755750858301515b5f19600386901b1c1916600185901b178555610422565b5f85815260208120601f198616915b828110156104ba5788860151825594840194600190910190840161049b565b50858210156104d757878501515f19600388901b60f8161c191681555b5050505050600190811b01905550565b828152604060208201525f6104ff6040830184610258565b94935050505056fea2646970667358221220941c70e4b327fffd31dfc63cb52e4fffd1392d8cf7bf3c1907deebbc17af4dc064736f6c63430008140033","opcodes":"PUSH1 0x80 PUSH1 0x40 MSTORE CALLVALUE DUP1 ISZERO PUSH2 0xF JUMPI PUSH0 DUP1 REVERT JUMPDEST POP PUSH2 0x53D DUP1 PUSH2 0x1D PUSH0 CODECOPY PUSH0 RETURN INVALID PUSH1 0x80 PUSH1 0x40 MSTORE CALLVALUE DUP1 ISZERO PUSH2 0xF JUMPI PUSH0 DUP1 REVERT JUMPDEST POP PUSH1 0x4 CALLDATASIZE LT PUSH2 0x3F JUMPI PUSH0 CALLDATALOAD PUSH1 0xE0 SHR DUP1 PUSH4 0x6661ABD EQ PUSH2 0x43 JUMPI DUP1 PUSH4 0x83240F83 EQ PUSH2 0x5F JUMPI DUP1 PUSH4 0xF3191ECD EQ PUSH2 0x82 JUMPI JUMPDEST PUSH0 DUP1 REVERT JUMPDEST PUSH2 0x4C PUSH1 0x1 SLOAD DUP2 JUMP JUMPDEST PUSH1 0x40 MLOAD SWAP1 DUP2 MSTORE PUSH1 0x20 ADD JUMPDEST PUSH1 0x40 MLOAD DUP1 SWAP2 SUB SWAP1 RETURN JUMPDEST PUSH2 0x72 PUSH2 0x6D CALLDATASIZE PUSH1 0x4 PUSH2 0x241 JUMP JUMPDEST PUSH2 0x95 JUMP JUMPDEST PUSH1 0x40 MLOAD PUSH2 0x56 SWAP5 SWAP4 SWAP3 SWAP2 SWAP1 PUSH2 0x29B JUMP JUMPDEST PUSH2 0x4C PUSH2 0x90 CALLDATASIZE PUSH1 0x4 PUSH2 0x2F0 JUMP JUMPDEST PUSH2 0x157 JUMP JUMPDEST PUSH0 PUSH1 0x20 DUP2 SWAP1 MSTORE SWAP1 DUP2 MSTORE PUSH1 0x40 SWAP1 KECCAK256 DUP1 SLOAD PUSH1 0x1 DUP3 ADD SLOAD PUSH1 0x2 DUP4 ADD DUP1 SLOAD PUSH1 0x1 PUSH1 0x1 PUSH1 0xA0 SHL SUB SWAP1 SWAP4 AND SWAP4 SWAP2 SWAP3 PUSH2 0xC6 SWAP1 PUSH2 0x3A5 JUMP JUMPDEST DUP1 PUSH1 0x1F ADD PUSH1 0x20 DUP1 SWAP2 DIV MUL PUSH1 0x20 ADD PUSH1 0x40 MLOAD SWAP1 DUP2 ADD PUSH1 0x40 MSTORE DUP1 SWAP3 SWAP2 SWAP1 DUP2 DUP2 MSTORE PUSH1 0x20 ADD DUP3 DUP1 SLOAD PUSH2 0xF2 SWAP1 PUSH2 0x3A5 JUMP JUMPDEST DUP1 ISZERO PUSH2 0x13D JUMPI DUP1 PUSH1 0x1F LT PUSH2 0x114 JUMPI PUSH2 0x100 DUP1 DUP4 SLOAD DIV MUL DUP4 MSTORE SWAP2 PUSH1 0x20 ADD SWAP2 PUSH2 0x13D JUMP JUMPDEST DUP3 ADD SWAP2 SWAP1 PUSH0 MSTORE PUSH1 0x20 PUSH0 KECCAK256 SWAP1 JUMPDEST DUP2 SLOAD DUP2 MSTORE SWAP1 PUSH1 0x1 ADD SWAP1 PUSH1 0x20 ADD DUP1 DUP4 GT PUSH2 0x120 JUMPI DUP3 SWAP1 SUB PUSH1 0x1F AND DUP3 ADD SWAP2 JUMPDEST POP POP POP PUSH1 0x3 SWAP1 SWAP4 ADD SLOAD SWAP2 SWAP3 POP POP PUSH8 0xFFFFFFFFFFFFFFFF AND DUP5 JUMP JUMPDEST PUSH1 0x1 DUP1 SLOAD DUP2 ADD DUP1 DUP3 SSTORE PUSH1 0x40 DUP1 MLOAD PUSH1 0x80 DUP2 ADD DUP3 MSTORE CALLER DUP2 MSTORE PUSH1 0x20 DUP1 DUP3 ADD DUP8 DUP2 MSTORE DUP3 DUP5 ADD DUP8 DUP2 MSTORE TIMESTAMP PUSH8 0xFFFFFFFFFFFFFFFF AND PUSH1 0x60 DUP6 ADD MSTORE PUSH0 DUP7 DUP2 MSTORE SWAP3 DUP4 SWAP1 MSTORE SWAP4 SWAP1 SWAP2 KECCAK256 DUP3 MLOAD DUP2 SLOAD PUSH1 0x1 PUSH1 0x1 PUSH1 0xA0 SHL SUB NOT AND PUSH1 0x1 PUSH1 0x1 PUSH1 0xA0 SHL SUB SWAP1 SWAP2 AND OR DUP2 SSTORE SWAP1 MLOAD SWAP5 DUP2 ADD SWAP5 SWAP1 SWAP5 SSTORE SWAP1 MLOAD SWAP2 SWAP3 SWAP1 SWAP2 PUSH1 0x2 DUP3 ADD SWAP1 PUSH2 0x1D1 SWAP1 DUP3 PUSH2 0x42B JUMP JUMPDEST POP PUSH1 0x60 SWAP2 SWAP1 SWAP2 ADD MLOAD PUSH1 0x3 SWAP1 SWAP2 ADD DUP1 SLOAD PUSH8 0xFFFFFFFFFFFFFFFF NOT AND PUSH8 0xFFFFFFFFFFFFFFFF SWAP1 SWAP3 AND SWAP2 SWAP1 SWAP2 OR SWAP1 SSTORE PUSH1 0x40 MLOAD CALLER SWAP1 DUP3 SWAP1 PUSH32 0xB6E9C3ABEF6CCDBA8C471CD6D84648C179378631A585153D297EAD2536BB95DB SWAP1 PUSH2 0x233 SWAP1 DUP8 SWAP1 DUP8 SWAP1 PUSH2 0x4E7 JUMP JUMPDEST PUSH1 0x40 MLOAD DUP1 SWAP2 SUB SWAP1 LOG3 SWAP3 SWAP2 POP POP JUMP JUMPDEST PUSH0 PUSH1 0x20 DUP3 DUP5 SUB SLT ISZERO PUSH2 0x251 JUMPI PUSH0 DUP1 REVERT JUMPDEST POP CALLDATALOAD SWAP2 SWAP1 POP JUMP JUMPDEST PUSH0 DUP2 MLOAD DUP1 DUP5 MSTORE PUSH0 JUMPDEST DUP2 DUP2 LT ISZERO PUSH2 0x27C JUMPI PUSH1 0x20 DUP2 DUP6 ADD DUP2 ADD MLOAD DUP7 DUP4 ADD DUP3 ADD MSTORE ADD PUSH2 0x260 JUMP JUMPDEST POP PUSH0 PUSH1 0x20 DUP3 DUP7 ADD ADD MSTORE PUSH1 0x20 PUSH1 0x1F NOT PUSH1 0x1F DUP4 ADD AND DUP6 ADD ADD SWAP2 POP POP SWAP3 SWAP2 POP POP JUMP JUMPDEST PUSH1 0x1 DUP1 PUSH1 0xA0 SHL SUB DUP6 AND DUP2 MSTORE DUP4 PUSH1 0x20 DUP3 ADD MSTORE PUSH1 0x80 PUSH1 0x40 DUP3 ADD MSTORE PUSH0 PUSH2 0x2C1 PUSH1 0x80 DUP4 ADD DUP6 PUSH2 0x258 JUMP JUMPDEST SWAP1 POP PUSH8 0xFFFFFFFFFFFFFFFF DUP4 AND PUSH1 0x60 DUP4 ADD MSTORE SWAP6 SWAP5 POP POP POP POP POP JUMP JUMPDEST PUSH4 0x4E487B71 PUSH1 0xE0 SHL PUSH0 MSTORE PUSH1 0x41 PUSH1 0x4 MSTORE PUSH1 0x24 PUSH0 REVERT JUMPDEST PUSH0 DUP1 PUSH1 0x40 DUP4 DUP6 SUB SLT ISZERO PUSH2 0x301 JUMPI PUSH0 DUP1 REVERT JUMPDEST DUP3 CALLDATALOAD SWAP2 POP PUSH1 0x20 DUP4 ADD CALLDATALOAD PUSH8 0xFFFFFFFFFFFFFFFF DUP1 DUP3 GT ISZERO PUSH2 0x31F JUMPI PUSH0 DUP1 REVERT JUMPDEST DUP2 DUP6 ADD SWAP2 POP DUP6 PUSH1 0x1F DUP4 ADD SLT PUSH2 0x332 JUMPI PUSH0 DUP1 REVERT JUMPDEST DUP2 CALLDATALOAD DUP2 DUP2 GT ISZERO PUSH2 0x344 JUMPI PUSH2 0x344 PUSH2 0x2DC JUMP JUMPDEST PUSH1 0x40 MLOAD PUSH1 0x1F DUP3 ADD PUSH1 0x1F NOT SWAP1 DUP2 AND PUSH1 0x3F ADD AND DUP2 ADD SWAP1 DUP4 DUP3 GT DUP2 DUP4 LT OR ISZERO PUSH2 0x36C JUMPI PUSH2 0x36C PUSH2 0x2DC JUMP JUMPDEST DUP2 PUSH1 0x40 MSTORE DUP3 DUP2 MSTORE DUP9 PUSH1 0x20 DUP5 DUP8 ADD ADD GT ISZERO PUSH2 0x384 JUMPI PUSH0 DUP1 REVERT JUMPDEST DUP3 PUSH1 0x20 DUP7 ADD PUSH1 0x20 DUP4 ADD CALLDATACOPY PUSH0 PUSH1 0x20 DUP5 DUP4 ADD ADD MSTORE DUP1 SWAP6 POP POP POP POP POP POP SWAP3 POP SWAP3 SWAP1 POP JUMP JUMPDEST PUSH1 0x1 DUP2 DUP2 SHR SWAP1 DUP3 AND DUP1 PUSH2 0x3B9 JUMPI PUSH1 0x7F DUP3 AND SWAP2 POP JUMPDEST PUSH1 0x20 DUP3 LT DUP2 SUB PUSH2 0x3D7 JUMPI PUSH4 0x4E487B71 PUSH1 0xE0 SHL PUSH0 MSTORE PUSH1 0x22 PUSH1 0x4 MSTORE PUSH1 0x24 PUSH0 REVERT JUMPDEST POP SWAP2 SWAP1 POP JUMP JUMPDEST PUSH1 0x1F DUP3 GT ISZERO PUSH2 0x426 JUMPI PUSH0 DUP2 DUP2 MSTORE PUSH1 0x20 DUP2 KECCAK256 PUSH1 0x1F DUP6 ADD PUSH1 0x5 SHR DUP2 ADD PUSH1 0x20 DUP7 LT ISZERO PUSH2 0x403 JUMPI POP DUP1 JUMPDEST PUSH1 0x1F DUP6 ADD PUSH1 0x5 SHR DUP3 ADD SWAP2 POP JUMPDEST DUP2 DUP2 LT ISZERO PUSH2 0x422 JUMPI DUP3 DUP2 SSTORE PUSH1 0x1 ADD PUSH2 0x40F JUMP JUMPDEST POP POP POP JUMPDEST POP POP POP JUMP JUMPDEST DUP2 MLOAD PUSH8 0xFFFFFFFFFFFFFFFF DUP2 GT ISZERO PUSH2 0x445 JUMPI PUSH2 0x445 PUSH2 0x2DC JUMP JUMPDEST PUSH2 0x459 DUP2 PUSH2 0x453 DUP5 SLOAD PUSH2 0x3A5 JUMP JUMPDEST DUP5 PUSH2 0x3DD JUMP JUMPDEST PUSH1 0x20 DUP1 PUSH1 0x1F DUP4 GT PUSH1 0x1 DUP2 EQ PUSH2 0x48C JUMPI PUSH0 DUP5 ISZERO PUSH2 0x475 JUMPI POP DUP6 DUP4 ADD MLOAD JUMPDEST PUSH0 NOT PUSH1 0x3 DUP7 SWAP1 SHL SHR NOT AND PUSH1 0x1 DUP6 SWAP1 SHL OR DUP6 SSTORE PUSH2 0x422 JUMP JUMPDEST PUSH0 DUP6 DUP2 MSTORE PUSH1 0x20 DUP2 KECCAK256 PUSH1 0x1F NOT DUP7 AND SWAP2 JUMPDEST DUP3 DUP2 LT ISZERO PUSH2 0x4BA JUMPI DUP9 DUP7 ADD MLOAD DUP3 SSTORE SWAP5 DUP5 ADD SWAP5 PUSH1 0x1 SWAP1 SWAP2 ADD SWAP1 DUP5 ADD PUSH2 0x49B JUMP JUMPDEST POP DUP6 DUP3 LT ISZERO PUSH2 0x4D7 JUMPI DUP8 DUP6 ADD MLOAD PUSH0 NOT PUSH1 0x3 DUP9 SWAP1 SHL PUSH1 0xF8 AND SHR NOT AND DUP2 SSTORE JUMPDEST POP POP POP POP POP PUSH1 0x1 SWAP1 DUP2 SHL ADD SWAP1 SSTORE POP JUMP JUMPDEST DUP3 DUP2 MSTORE PUSH1 0x40 PUSH1 0x20 DUP3 ADD MSTORE PUSH0 PUSH2 0x4FF PUSH1 0x40 DUP4 ADD DUP5 PUSH2 0x258 JUMP JUMPDEST SWAP5 SWAP4 POP POP POP POP JUMP INVALID LOG2 PUSH5 0x6970667358 0x22 SLT KECCAK256 SWAP5 SHR PUSH17 0xE4B327FFFD31DFC63CB52E4FFFD1392D8C 0xF7 0xBF EXTCODECOPY NOT SMOD 0xDE 0xEB 0xBC OR 0xAF 0x4D 0xC0 PUSH5 0x736F6C6343 STOP ADDMOD EQ STOP CALLER "},"methodIdentifiers":{"actions(uint256)":"83240f83","count()":"06661abd","logAction(bytes32,string)":"f3191ecd"}}}}}