{"project/contracts/TrustAgent.sol":{"TrustAgent":{"abi":[{"inputs":[{"internalType":"address","name":"oracle_","type":"address"}],"stateMutability":"nonpayable","type":"constructor"},{"inputs":[],"name":"AlreadySettled","type":"error"},{"inputs":[],"name":"BadEmployee","type":"error"},{"inputs":[],"name":"InvalidBooking","type":"error"},{"inputs":[],"name":"NotOracle","type":"error"},{"inputs":[],"name":"NotOwner","type":"error"},{"inputs":[],"name":"TooEarlyForRefund","type":"error"},{"anonymous":false,"inputs":[{"indexed":true,"internalType":"uint256","name":"bookingId","type":"uint256"},{"indexed":true,"internalType":"address","name":"company","type":"address"},{"indexed":true,"internalType":"address","name":"employee","type":"address"},{"indexed":false,"internalType":"uint256","name":"amount","type":"uint256"},{"indexed":false,"internalType":"uint256","name":"meetingEnd","type":"uint256"}],"name":"Booked","type":"event"},{"anonymous":false,"inputs":[{"indexed":true,"internalType":"uint256","name":"bookingId","type":"uint256"},{"indexed":false,"internalType":"bool","name":"meetingSuccessful","type":"bool"},{"indexed":true,"internalType":"address","name":"beneficiary","type":"address"},{"indexed":false,"internalType":"uint256","name":"amount","type":"uint256"},{"indexed":false,"internalType":"string","name":"reason","type":"string"}],"name":"OutcomeSettled","type":"event"},{"anonymous":false,"inputs":[{"indexed":true,"internalType":"uint256","name":"bookingId","type":"uint256"},{"indexed":true,"internalType":"address","name":"company","type":"address"},{"indexed":false,"internalType":"uint256","name":"amount","type":"uint256"}],"name":"RefundedExpired","type":"event"},{"anonymous":false,"inputs":[{"indexed":true,"internalType":"address","name":"user","type":"address"},{"indexed":false,"internalType":"uint256","name":"newTotal","type":"uint256"}],"name":"ReputationIncreased","type":"event"},{"inputs":[],"name":"REFUND_GRACE","outputs":[{"internalType":"uint256","name":"","type":"uint256"}],"stateMutability":"view","type":"function"},{"inputs":[{"internalType":"address","name":"employee","type":"address"},{"internalType":"uint256","name":"meetingEnd","type":"uint256"}],"name":"book","outputs":[],"stateMutability":"payable","type":"function"},{"inputs":[{"internalType":"uint256","name":"","type":"uint256"}],"name":"bookings","outputs":[{"internalType":"address","name":"company","type":"address"},{"internalType":"address","name":"employee","type":"address"},{"internalType":"uint256","name":"amount","type":"uint256"},{"internalType":"uint256","name":"meetingEnd","type":"uint256"},{"internalType":"bool","name":"settled","type":"bool"}],"stateMutability":"view","type":"function"},{"inputs":[{"internalType":"uint256","name":"bookingId","type":"uint256"},{"internalType":"string","name":"reason","type":"string"}],"name":"completeMeeting","outputs":[],"stateMutability":"nonpayable","type":"function"},{"inputs":[{"internalType":"address","name":"employee","type":"address"},{"internalType":"uint256","name":"meetingEnd","type":"uint256"}],"name":"createMeeting","outputs":[],"stateMutability":"payable","type":"function"},{"inputs":[{"internalType":"uint256","name":"bookingId","type":"uint256"},{"internalType":"bool","name":"meetingSuccessful","type":"bool"},{"internalType":"string","name":"reason","type":"string"}],"name":"executeOutcome","outputs":[],"stateMutability":"nonpayable","type":"function"},{"inputs":[{"internalType":"address","name":"user","type":"address"}],"name":"getReputationScore","outputs":[{"internalType":"uint256","name":"","type":"uint256"}],"stateMutability":"view","type":"function"},{"inputs":[{"internalType":"address","name":"user","type":"address"}],"name":"increaseReputation","outputs":[],"stateMutability":"nonpayable","type":"function"},{"inputs":[],"name":"nextBookingId","outputs":[{"internalType":"uint256","name":"","type":"uint256"}],"stateMutability":"view","type":"function"},{"inputs":[],"name":"oracle","outputs":[{"internalType":"address","name":"","type":"address"}],"stateMutability":"view","type":"function"},{"inputs":[],"name":"owner","outputs":[{"internalType":"address","name":"","type":"address"}],"stateMutability":"view","type":"function"},{"inputs":[{"internalType":"uint256","name":"bookingId","type":"uint256"}],"name":"refundIfExpired","outputs":[],"stateMutability":"nonpayable","type":"function"},{"inputs":[{"internalType":"address","name":"","type":"address"}],"name":"reputation","outputs":[{"internalType":"uint256","name":"","type":"uint256"}],"stateMutability":"view","type":"function"},{"inputs":[{"internalType":"uint256","name":"bookingId","type":"uint256"}],"name":"requestRefund","outputs":[],"stateMutability":"nonpayable","type":"function"},{"inputs":[{"internalType":"address","name":"o","type":"address"}],"name":"setOracle","outputs":[],"stateMutability":"nonpayable","type":"function"}],"evm":{"bytecode":{"linkReferences":{},"object":"608060405234801561000f575f80fd5b50604051610d13380380610d1383398101604081905261002e91610060565b5f8054336001600160a01b031991821617909155600180549091166001600160a01b039290921691909117905561008d565b5f60208284031215610070575f80fd5b81516001600160a01b0381168114610086575f80fd5b9392505050565b610c798061009a5f395ff3fe6080604052600436106100e4575f3560e01c80637adbf97311610087578063ae6e0f9711610057578063ae6e0f97146102b7578063b094b96114610298578063b9f79451146102d6578063cccc0be214610301575f80fd5b80637adbf973146102245780637dc0d1d0146102435780638da5cb5b1461027a578063a4b2409e14610298575f80fd5b806326f20c79116100c257806326f20c791461018f578063353dac75146101b25780634f76dc61146101d157806375a67d5c146101f0575f80fd5b806303efb5c4146100e85780631dab301e146100fd5780632605c61d146100e8575b5f80fd5b6100fb6100f6366004610a78565b610317565b005b348015610108575f80fd5b50610155610117366004610aa0565b600460208190525f9182526040909120805460018201546002830154600384015493909401546001600160a01b039283169492909116929060ff1685565b604080516001600160a01b0396871681529590941660208601529284019190915260608301521515608082015260a0015b60405180910390f35b34801561019a575f80fd5b506101a460035481565b604051908152602001610186565b3480156101bd575f80fd5b506100fb6101cc366004610afc565b61034b565b3480156101dc575f80fd5b506100fb6101eb366004610b44565b6103b1565b3480156101fb575f80fd5b506101a461020a366004610b44565b6001600160a01b03165f9081526002602052604090205490565b34801561022f575f80fd5b506100fb61023e366004610b44565b610433565b34801561024e575f80fd5b50600154610262906001600160a01b031681565b6040516001600160a01b039091168152602001610186565b348015610285575f80fd5b505f54610262906001600160a01b031681565b3480156102a3575f80fd5b506100fb6102b2366004610aa0565b61047f565b3480156102c2575f80fd5b506100fb6102d1366004610b64565b6104b1565b3480156102e1575f80fd5b506101a46102f0366004610b44565b60026020525f908152604090205481565b34801561030c575f80fd5b506101a46201518081565b60055460ff1615610326575f80fd5b6005805460ff1916600117905561033d8282610514565b50506005805460ff19169055565b6001546001600160a01b0316331461037657604051631bc2178f60e01b815260040160405180910390fd5b60055460ff1615610385575f80fd5b6005805460ff191660019081179091556103a2908490848461064f565b50506005805460ff1916905550565b6001546001600160a01b031633146103dc57604051631bc2178f60e01b815260040160405180910390fd5b6001600160a01b0381165f818152600260209081526040918290208054600a019081905591519182527ffac498e7ee7d43e382528bf22afd838a7c6abfa5f54e7c564f7e5a54a18ca34c910160405180910390a250565b5f546001600160a01b0316331461045d576040516330cd747160e01b815260040160405180910390fd5b600180546001600160a01b0319166001600160a01b0392909216919091179055565b60055460ff161561048e575f80fd5b6005805460ff191660011790556104a4816108ec565b506005805460ff19169055565b6001546001600160a01b031633146104dc57604051631bc2178f60e01b815260040160405180910390fd5b60055460ff16156104eb575f80fd5b6005805460ff191660011790556105048484848461064f565b50506005805460ff191690555050565b345f0361051f575f80fd5b6001600160a01b038216158061053d57506001600160a01b03821633145b1561055b5760405163d818965360e01b815260040160405180910390fd5b428111610566575f80fd5b5f60035f815461057590610bd4565b91829055506040805160a081018252338082526001600160a01b03878116602080850182815234868801818152606088018c81525f60808a018181528c82526004808852918c90209a518b546001600160a01b0319908116918b16919091178c55955160018c0180549097169916989098179094559051600289015551600388015593519501805460ff19169515159590951790945584519182529281018790529394509092909184917f314b986a080e4351ebdc4224511f089c3797c6da1326f960829bd2f175da15a3910160405180910390a4505050565b5f84815260046020526040902080546001600160a01b031661068457604051630183c19560e71b815260040160405180910390fd5b600481015460ff16156106a95760405162560ff960e81b815260040160405180910390fd5b60048101805460ff191660011790556002810154841561080c5760018201546040515f916001600160a01b03169083908381818185875af1925050503d805f811461070f576040519150601f19603f3d011682016040523d82523d5f602084013e610714565b606091505b50509050806107505760405162461bcd60e51b815260206004820152600360248201526270617960e81b60448201526064015b60405180910390fd5b6001830180546001600160a01b039081165f9081526002602090815260408083208054600a019055935490921680825290839020549251928352917ffac498e7ee7d43e382528bf22afd838a7c6abfa5f54e7c564f7e5a54a18ca34c910160405180910390a26001808401546040516001600160a01b039091169189917ffa9ccd77157bdfab71fef6447e120094b3101fe9cf7de8ced3b02b49130fdc7b916107fe9187908b908b90610bec565b60405180910390a3506108e4565b81546040515f916001600160a01b03169083908381818185875af1925050503d805f8114610855576040519150601f19603f3d011682016040523d82523d5f602084013e61085a565b606091505b50509050806108945760405162461bcd60e51b81526020600482015260066024820152651c99599d5b9960d21b6044820152606401610747565b82546040516001600160a01b039091169088907ffa9ccd77157bdfab71fef6447e120094b3101fe9cf7de8ced3b02b49130fdc7b906108da905f9087908b908b90610bec565b60405180910390a3505b505050505050565b5f81815260046020526040902080546001600160a01b031661092157604051630183c19560e71b815260040160405180910390fd5b600481015460ff16156109465760405162560ff960e81b815260040160405180910390fd5b6201518081600301546109599190610c2a565b4211610978576040516319ddad0f60e31b815260040160405180910390fd5b60048101805460ff19166001179055600281015481546040515f916001600160a01b03169083908381818185875af1925050503d805f81146109d5576040519150601f19603f3d011682016040523d82523d5f602084013e6109da565b606091505b5050905080610a145760405162461bcd60e51b81526020600482015260066024820152651c99599d5b9960d21b6044820152606401610747565b82546040518381526001600160a01b039091169085907f730fb68bea82a92bed53bc81f1e5de788fda6b880be2bf0966c7417e44b28e4b9060200160405180910390a350505050565b80356001600160a01b0381168114610a73575f80fd5b919050565b5f8060408385031215610a89575f80fd5b610a9283610a5d565b946020939093013593505050565b5f60208284031215610ab0575f80fd5b5035919050565b5f8083601f840112610ac7575f80fd5b50813567ffffffffffffffff811115610ade575f80fd5b602083019150836020828501011115610af5575f80fd5b9250929050565b5f805f60408486031215610b0e575f80fd5b83359250602084013567ffffffffffffffff811115610b2b575f80fd5b610b3786828701610ab7565b9497909650939450505050565b5f60208284031215610b54575f80fd5b610b5d82610a5d565b9392505050565b5f805f8060608587031215610b77575f80fd5b8435935060208501358015158114610b8d575f80fd5b9250604085013567ffffffffffffffff811115610ba8575f80fd5b610bb487828801610ab7565b95989497509550505050565b634e487b7160e01b5f52601160045260245ffd5b5f60018201610be557610be5610bc0565b5060010190565b841515815283602082015260606040820152816060820152818360808301375f818301608090810191909152601f909201601f191601019392505050565b80820180821115610c3d57610c3d610bc0565b9291505056fea26469706673582212208c9e4ba120471013f372c8f35bf2373ff97356a99df7b76e6115bcdc30ec02b764736f6c63430008140033","opcodes":"PUSH1 0x80 PUSH1 0x40 MSTORE CALLVALUE DUP1 ISZERO PUSH2 0xF JUMPI PUSH0 DUP1 REVERT JUMPDEST POP PUSH1 0x40 MLOAD PUSH2 0xD13 CODESIZE SUB DUP1 PUSH2 0xD13 DUP4 CODECOPY DUP2 ADD PUSH1 0x40 DUP2 SWAP1 MSTORE PUSH2 0x2E SWAP2 PUSH2 0x60 JUMP JUMPDEST PUSH0 DUP1 SLOAD CALLER PUSH1 0x1 PUSH1 0x1 PUSH1 0xA0 SHL SUB NOT SWAP2 DUP3 AND OR SWAP1 SWAP2 SSTORE PUSH1 0x1 DUP1 SLOAD SWAP1 SWAP2 AND PUSH1 0x1 PUSH1 0x1 PUSH1 0xA0 SHL SUB SWAP3 SWAP1 SWAP3 AND SWAP2 SWAP1 SWAP2 OR SWAP1 SSTORE PUSH2 0x8D JUMP JUMPDEST PUSH0 PUSH1 0x20 DUP3 DUP5 SUB SLT ISZERO PUSH2 0x70 JUMPI PUSH0 DUP1 REVERT JUMPDEST DUP2 MLOAD PUSH1 0x1 PUSH1 0x1 PUSH1 0xA0 SHL SUB DUP2 AND DUP2 EQ PUSH2 0x86 JUMPI PUSH0 DUP1 REVERT JUMPDEST SWAP4 SWAP3 POP POP POP JUMP JUMPDEST PUSH2 0xC79 DUP1 PUSH2 0x9A PUSH0 CODECOPY PUSH0 RETURN INVALID PUSH1 0x80 PUSH1 0x40 MSTORE PUSH1 0x4 CALLDATASIZE LT PUSH2 0xE4 JUMPI PUSH0 CALLDATALOAD PUSH1 0xE0 SHR DUP1 PUSH4 0x7ADBF973 GT PUSH2 0x87 JUMPI DUP1 PUSH4 0xAE6E0F97 GT PUSH2 0x57 JUMPI DUP1 PUSH4 0xAE6E0F97 EQ PUSH2 0x2B7 JUMPI DUP1 PUSH4 0xB094B961 EQ PUSH2 0x298 JUMPI DUP1 PUSH4 0xB9F79451 EQ PUSH2 0x2D6 JUMPI DUP1 PUSH4 0xCCCC0BE2 EQ PUSH2 0x301 JUMPI PUSH0 DUP1 REVERT JUMPDEST DUP1 PUSH4 0x7ADBF973 EQ PUSH2 0x224 JUMPI DUP1 PUSH4 0x7DC0D1D0 EQ PUSH2 0x243 JUMPI DUP1 PUSH4 0x8DA5CB5B EQ PUSH2 0x27A JUMPI DUP1 PUSH4 0xA4B2409E EQ PUSH2 0x298 JUMPI PUSH0 DUP1 REVERT JUMPDEST DUP1 PUSH4 0x26F20C79 GT PUSH2 0xC2 JUMPI DUP1 PUSH4 0x26F20C79 EQ PUSH2 0x18F JUMPI DUP1 PUSH4 0x353DAC75 EQ PUSH2 0x1B2 JUMPI DUP1 PUSH4 0x4F76DC61 EQ PUSH2 0x1D1 JUMPI DUP1 PUSH4 0x75A67D5C EQ PUSH2 0x1F0 JUMPI PUSH0 DUP1 REVERT JUMPDEST DUP1 PUSH4 0x3EFB5C4 EQ PUSH2 0xE8 JUMPI DUP1 PUSH4 0x1DAB301E EQ PUSH2 0xFD JUMPI DUP1 PUSH4 0x2605C61D EQ PUSH2 0xE8 JUMPI JUMPDEST PUSH0 DUP1 REVERT JUMPDEST PUSH2 0xFB PUSH2 0xF6 CALLDATASIZE PUSH1 0x4 PUSH2 0xA78 JUMP JUMPDEST PUSH2 0x317 JUMP JUMPDEST STOP JUMPDEST CALLVALUE DUP1 ISZERO PUSH2 0x108 JUMPI PUSH0 DUP1 REVERT JUMPDEST POP PUSH2 0x155 PUSH2 0x117 CALLDATASIZE PUSH1 0x4 PUSH2 0xAA0 JUMP JUMPDEST PUSH1 0x4 PUSH1 0x20 DUP2 SWAP1 MSTORE PUSH0 SWAP2 DUP3 MSTORE PUSH1 0x40 SWAP1 SWAP2 KECCAK256 DUP1 SLOAD PUSH1 0x1 DUP3 ADD SLOAD PUSH1 0x2 DUP4 ADD SLOAD PUSH1 0x3 DUP5 ADD SLOAD SWAP4 SWAP1 SWAP5 ADD SLOAD PUSH1 0x1 PUSH1 0x1 PUSH1 0xA0 SHL SUB SWAP3 DUP4 AND SWAP5 SWAP3 SWAP1 SWAP2 AND SWAP3 SWAP1 PUSH1 0xFF AND DUP6 JUMP JUMPDEST PUSH1 0x40 DUP1 MLOAD PUSH1 0x1 PUSH1 0x1 PUSH1 0xA0 SHL SUB SWAP7 DUP8 AND DUP2 MSTORE SWAP6 SWAP1 SWAP5 AND PUSH1 0x20 DUP7 ADD MSTORE SWAP3 DUP5 ADD SWAP2 SWAP1 SWAP2 MSTORE PUSH1 0x60 DUP4 ADD MSTORE ISZERO ISZERO PUSH1 0x80 DUP3 ADD MSTORE PUSH1 0xA0 ADD JUMPDEST PUSH1 0x40 MLOAD DUP1 SWAP2 SUB SWAP1 RETURN JUMPDEST CALLVALUE DUP1 ISZERO PUSH2 0x19A JUMPI PUSH0 DUP1 REVERT JUMPDEST POP PUSH2 0x1A4 PUSH1 0x3 SLOAD DUP2 JUMP JUMPDEST PUSH1 0x40 MLOAD SWAP1 DUP2 MSTORE PUSH1 0x20 ADD PUSH2 0x186 JUMP JUMPDEST CALLVALUE DUP1 ISZERO PUSH2 0x1BD JUMPI PUSH0 DUP1 REVERT JUMPDEST POP PUSH2 0xFB PUSH2 0x1CC CALLDATASIZE PUSH1 0x4 PUSH2 0xAFC JUMP JUMPDEST PUSH2 0x34B JUMP JUMPDEST CALLVALUE DUP1 ISZERO PUSH2 0x1DC JUMPI PUSH0 DUP1 REVERT JUMPDEST POP PUSH2 0xFB PUSH2 0x1EB CALLDATASIZE PUSH1 0x4 PUSH2 0xB44 JUMP JUMPDEST PUSH2 0x3B1 JUMP JUMPDEST CALLVALUE DUP1 ISZERO PUSH2 0x1FB JUMPI PUSH0 DUP1 REVERT JUMPDEST POP PUSH2 0x1A4 PUSH2 0x20A CALLDATASIZE PUSH1 0x4 PUSH2 0xB44 JUMP JUMPDEST PUSH1 0x1 PUSH1 0x1 PUSH1 0xA0 SHL SUB AND PUSH0 SWAP1 DUP2 MSTORE PUSH1 0x2 PUSH1 0x20 MSTORE PUSH1 0x40 SWAP1 KECCAK256 SLOAD SWAP1 JUMP JUMPDEST CALLVALUE DUP1 ISZERO PUSH2 0x22F JUMPI PUSH0 DUP1 REVERT JUMPDEST POP PUSH2 0xFB PUSH2 0x23E CALLDATASIZE PUSH1 0x4 PUSH2 0xB44 JUMP JUMPDEST PUSH2 0x433 JUMP JUMPDEST CALLVALUE DUP1 ISZERO PUSH2 0x24E JUMPI PUSH0 DUP1 REVERT JUMPDEST POP PUSH1 0x1 SLOAD PUSH2 0x262 SWAP1 PUSH1 0x1 PUSH1 0x1 PUSH1 0xA0 SHL SUB AND DUP2 JUMP JUMPDEST PUSH1 0x40 MLOAD PUSH1 0x1 PUSH1 0x1 PUSH1 0xA0 SHL SUB SWAP1 SWAP2 AND DUP2 MSTORE PUSH1 0x20 ADD PUSH2 0x186 JUMP JUMPDEST CALLVALUE DUP1 ISZERO PUSH2 0x285 JUMPI PUSH0 DUP1 REVERT JUMPDEST POP PUSH0 SLOAD PUSH2 0x262 SWAP1 PUSH1 0x1 PUSH1 0x1 PUSH1 0xA0 SHL SUB AND DUP2 JUMP JUMPDEST CALLVALUE DUP1 ISZERO PUSH2 0x2A3 JUMPI PUSH0 DUP1 REVERT JUMPDEST POP PUSH2 0xFB PUSH2 0x2B2 CALLDATASIZE PUSH1 0x4 PUSH2 0xAA0 JUMP JUMPDEST PUSH2 0x47F JUMP JUMPDEST CALLVALUE DUP1 ISZERO PUSH2 0x2C2 JUMPI PUSH0 DUP1 REVERT JUMPDEST POP PUSH2 0xFB PUSH2 0x2D1 CALLDATASIZE PUSH1 0x4 PUSH2 0xB64 JUMP JUMPDEST PUSH2 0x4B1 JUMP JUMPDEST CALLVALUE DUP1 ISZERO PUSH2 0x2E1 JUMPI PUSH0 DUP1 REVERT JUMPDEST POP PUSH2 0x1A4 PUSH2 0x2F0 CALLDATASIZE PUSH1 0x4 PUSH2 0xB44 JUMP JUMPDEST PUSH1 0x2 PUSH1 0x20 MSTORE PUSH0 SWAP1 DUP2 MSTORE PUSH1 0x40 SWAP1 KECCAK256 SLOAD DUP2 JUMP JUMPDEST CALLVALUE DUP1 ISZERO PUSH2 0x30C JUMPI PUSH0 DUP1 REVERT JUMPDEST POP PUSH2 0x1A4 PUSH3 0x15180 DUP2 JUMP JUMPDEST PUSH1 0x5 SLOAD PUSH1 0xFF AND ISZERO PUSH2 0x326 JUMPI PUSH0 DUP1 REVERT JUMPDEST PUSH1 0x5 DUP1 SLOAD PUSH1 0xFF NOT AND PUSH1 0x1 OR SWAP1 SSTORE PUSH2 0x33D DUP3 DUP3 PUSH2 0x514 JUMP JUMPDEST POP POP PUSH1 0x5 DUP1 SLOAD PUSH1 0xFF NOT AND SWAP1 SSTORE JUMP JUMPDEST PUSH1 0x1 SLOAD PUSH1 0x1 PUSH1 0x1 PUSH1 0xA0 SHL SUB AND CALLER EQ PUSH2 0x376 JUMPI PUSH1 0x40 MLOAD PUSH4 0x1BC2178F PUSH1 0xE0 SHL DUP2 MSTORE PUSH1 0x4 ADD PUSH1 0x40 MLOAD DUP1 SWAP2 SUB SWAP1 REVERT JUMPDEST PUSH1 0x5 SLOAD PUSH1 0xFF AND ISZERO PUSH2 0x385 JUMPI PUSH0 DUP1 REVERT JUMPDEST PUSH1 0x5 DUP1 SLOAD PUSH1 0xFF NOT AND PUSH1 0x1 SWAP1 DUP2 OR SWAP1 SWAP2 SSTORE PUSH2 0x3A2 SWAP1 DUP5 SWAP1 DUP5 DUP5 PUSH2 0x64F JUMP JUMPDEST POP POP PUSH1 0x5 DUP1 SLOAD PUSH1 0xFF NOT AND SWAP1 SSTORE POP JUMP JUMPDEST PUSH1 0x1 SLOAD PUSH1 0x1 PUSH1 0x1 PUSH1 0xA0 SHL SUB AND CALLER EQ PUSH2 0x3DC JUMPI PUSH1 0x40 MLOAD PUSH4 0x1BC2178F PUSH1 0xE0 SHL DUP2 MSTORE PUSH1 0x4 ADD PUSH1 0x40 MLOAD DUP1 SWAP2 SUB SWAP1 REVERT JUMPDEST PUSH1 0x1 PUSH1 0x1 PUSH1 0xA0 SHL SUB DUP2 AND PUSH0 DUP2 DUP2 MSTORE PUSH1 0x2 PUSH1 0x20 SWAP1 DUP2 MSTORE PUSH1 0x40 SWAP2 DUP3 SWAP1 KECCAK256 DUP1 SLOAD PUSH1 0xA ADD SWAP1 DUP2 SWAP1 SSTORE SWAP2 MLOAD SWAP2 DUP3 MSTORE PUSH32 0xFAC498E7EE7D43E382528BF22AFD838A7C6ABFA5F54E7C564F7E5A54A18CA34C SWAP2 ADD PUSH1 0x40 MLOAD DUP1 SWAP2 SUB SWAP1 LOG2 POP JUMP JUMPDEST PUSH0 SLOAD PUSH1 0x1 PUSH1 0x1 PUSH1 0xA0 SHL SUB AND CALLER EQ PUSH2 0x45D JUMPI PUSH1 0x40 MLOAD PUSH4 0x30CD7471 PUSH1 0xE0 SHL DUP2 MSTORE PUSH1 0x4 ADD PUSH1 0x40 MLOAD DUP1 SWAP2 SUB SWAP1 REVERT JUMPDEST PUSH1 0x1 DUP1 SLOAD PUSH1 0x1 PUSH1 0x1 PUSH1 0xA0 SHL SUB NOT AND PUSH1 0x1 PUSH1 0x1 PUSH1 0xA0 SHL SUB SWAP3 SWAP1 SWAP3 AND SWAP2 SWAP1 SWAP2 OR SWAP1 SSTORE JUMP JUMPDEST PUSH1 0x5 SLOAD PUSH1 0xFF AND ISZERO PUSH2 0x48E JUMPI PUSH0 DUP1 REVERT JUMPDEST PUSH1 0x5 DUP1 SLOAD PUSH1 0xFF NOT AND PUSH1 0x1 OR SWAP1 SSTORE PUSH2 0x4A4 DUP2 PUSH2 0x8EC JUMP JUMPDEST POP PUSH1 0x5 DUP1 SLOAD PUSH1 0xFF NOT AND SWAP1 SSTORE JUMP JUMPDEST PUSH1 0x1 SLOAD PUSH1 0x1 PUSH1 0x1 PUSH1 0xA0 SHL SUB AND CALLER EQ PUSH2 0x4DC JUMPI PUSH1 0x40 MLOAD PUSH4 0x1BC2178F PUSH1 0xE0 SHL DUP2 MSTORE PUSH1 0x4 ADD PUSH1 0x40 MLOAD DUP1 SWAP2 SUB SWAP1 REVERT JUMPDEST PUSH1 0x5 SLOAD PUSH1 0xFF AND ISZERO PUSH2 0x4EB JUMPI PUSH0 DUP1 REVERT JUMPDEST PUSH1 0x5 DUP1 SLOAD PUSH1 0xFF NOT AND PUSH1 0x1 OR SWAP1 SSTORE PUSH2 0x504 DUP5 DUP5 DUP5 DUP5 PUSH2 0x64F JUMP JUMPDEST POP POP PUSH1 0x5 DUP1 SLOAD PUSH1 0xFF NOT AND SWAP1 SSTORE POP POP JUMP JUMPDEST CALLVALUE PUSH0 SUB PUSH2 0x51F JUMPI PUSH0 DUP1 REVERT JUMPDEST PUSH1 0x1 PUSH1 0x1 PUSH1 0xA0 SHL SUB DUP3 AND ISZERO DUP1 PUSH2 0x53D JUMPI POP PUSH1 0x1 PUSH1 0x1 PUSH1 0xA0 SHL SUB DUP3 AND CALLER EQ JUMPDEST ISZERO PUSH2 0x55B JUMPI PUSH1 0x40 MLOAD PUSH4 0xD8189653 PUSH1 0xE0 SHL DUP2 MSTORE PUSH1 0x4 ADD PUSH1 0x40 MLOAD DUP1 SWAP2 SUB SWAP1 REVERT JUMPDEST TIMESTAMP DUP2 GT PUSH2 0x566 JUMPI PUSH0 DUP1 REVERT JUMPDEST PUSH0 PUSH1 0x3 PUSH0 DUP2 SLOAD PUSH2 0x575 SWAP1 PUSH2 0xBD4 JUMP JUMPDEST SWAP2 DUP3 SWAP1 SSTORE POP PUSH1 0x40 DUP1 MLOAD PUSH1 0xA0 DUP2 ADD DUP3 MSTORE CALLER DUP1 DUP3 MSTORE PUSH1 0x1 PUSH1 0x1 PUSH1 0xA0 SHL SUB DUP8 DUP2 AND PUSH1 0x20 DUP1 DUP6 ADD DUP3 DUP2 MSTORE CALLVALUE DUP7 DUP9 ADD DUP2 DUP2 MSTORE PUSH1 0x60 DUP9 ADD DUP13 DUP2 MSTORE PUSH0 PUSH1 0x80 DUP11 ADD DUP2 DUP2 MSTORE DUP13 DUP3 MSTORE PUSH1 0x4 DUP1 DUP9 MSTORE SWAP2 DUP13 SWAP1 KECCAK256 SWAP11 MLOAD DUP12 SLOAD PUSH1 0x1 PUSH1 0x1 PUSH1 0xA0 SHL SUB NOT SWAP1 DUP2 AND SWAP2 DUP12 AND SWAP2 SWAP1 SWAP2 OR DUP13 SSTORE SWAP6 MLOAD PUSH1 0x1 DUP13 ADD DUP1 SLOAD SWAP1 SWAP8 AND SWAP10 AND SWAP9 SWAP1 SWAP9 OR SWAP1 SWAP5 SSTORE SWAP1 MLOAD PUSH1 0x2 DUP10 ADD SSTORE MLOAD PUSH1 0x3 DUP9 ADD SSTORE SWAP4 MLOAD SWAP6 ADD DUP1 SLOAD PUSH1 0xFF NOT AND SWAP6 ISZERO ISZERO SWAP6 SWAP1 SWAP6 OR SWAP1 SWAP5 SSTORE DUP5 MLOAD SWAP2 DUP3 MSTORE SWAP3 DUP2 ADD DUP8 SWAP1 MSTORE SWAP4 SWAP5 POP SWAP1 SWAP3 SWAP1 SWAP2 DUP5 SWAP2 PUSH32 0x314B986A080E4351EBDC4224511F089C3797C6DA1326F960829BD2F175DA15A3 SWAP2 ADD PUSH1 0x40 MLOAD DUP1 SWAP2 SUB SWAP1 LOG4 POP POP POP JUMP JUMPDEST PUSH0 DUP5 DUP2 MSTORE PUSH1 0x4 PUSH1 0x20 MSTORE PUSH1 0x40 SWAP1 KECCAK256 DUP1 SLOAD PUSH1 0x1 PUSH1 0x1 PUSH1 0xA0 SHL SUB AND PUSH2 0x684 JUMPI PUSH1 0x40 MLOAD PUSH4 0x183C195 PUSH1 0xE7 SHL DUP2 MSTORE PUSH1 0x4 ADD PUSH1 0x40 MLOAD DUP1 SWAP2 SUB SWAP1 REVERT JUMPDEST PUSH1 0x4 DUP2 ADD SLOAD PUSH1 0xFF AND ISZERO PUSH2 0x6A9 JUMPI PUSH1 0x40 MLOAD PUSH3 0x560FF9 PUSH1 0xE8 SHL DUP2 MSTORE PUSH1 0x4 ADD PUSH1 0x40 MLOAD DUP1 SWAP2 SUB SWAP1 REVERT JUMPDEST PUSH1 0x4 DUP2 ADD DUP1 SLOAD PUSH1 0xFF NOT AND PUSH1 0x1 OR SWAP1 SSTORE PUSH1 0x2 DUP2 ADD SLOAD DUP5 ISZERO PUSH2 0x80C JUMPI PUSH1 0x1 DUP3 ADD SLOAD PUSH1 0x40 MLOAD PUSH0 SWAP2 PUSH1 0x1 PUSH1 0x1 PUSH1 0xA0 SHL SUB AND SWAP1 DUP4 SWAP1 DUP4 DUP2 DUP2 DUP2 DUP6 DUP8 GAS CALL SWAP3 POP POP POP RETURNDATASIZE DUP1 PUSH0 DUP2 EQ PUSH2 0x70F JUMPI PUSH1 0x40 MLOAD SWAP2 POP PUSH1 0x1F NOT PUSH1 0x3F RETURNDATASIZE ADD AND DUP3 ADD PUSH1 0x40 MSTORE RETURNDATASIZE DUP3 MSTORE RETURNDATASIZE PUSH0 PUSH1 0x20 DUP5 ADD RETURNDATACOPY PUSH2 0x714 JUMP JUMPDEST PUSH1 0x60 SWAP2 POP JUMPDEST POP POP SWAP1 POP DUP1 PUSH2 0x750 JUMPI PUSH1 0x40 MLOAD PUSH3 0x461BCD PUSH1 0xE5 SHL DUP2 MSTORE PUSH1 0x20 PUSH1 0x4 DUP3 ADD MSTORE PUSH1 0x3 PUSH1 0x24 DUP3 ADD MSTORE PUSH3 0x706179 PUSH1 0xE8 SHL PUSH1 0x44 DUP3 ADD MSTORE PUSH1 0x64 ADD JUMPDEST PUSH1 0x40 MLOAD DUP1 SWAP2 SUB SWAP1 REVERT JUMPDEST PUSH1 0x1 DUP4 ADD DUP1 SLOAD PUSH1 0x1 PUSH1 0x1 PUSH1 0xA0 SHL SUB SWAP1 DUP2 AND PUSH0 SWAP1 DUP2 MSTORE PUSH1 0x2 PUSH1 0x20 SWAP1 DUP2 MSTORE PUSH1 0x40 DUP1 DUP4 KECCAK256 DUP1 SLOAD PUSH1 0xA ADD SWAP1 SSTORE SWAP4 SLOAD SWAP1 SWAP3 AND DUP1 DUP3 MSTORE SWAP1 DUP4 SWAP1 KECCAK256 SLOAD SWAP3 MLOAD SWAP3 DUP4 MSTORE SWAP2 PUSH32 0xFAC498E7EE7D43E382528BF22AFD838A7C6ABFA5F54E7C564F7E5A54A18CA34C SWAP2 ADD PUSH1 0x40 MLOAD DUP1 SWAP2 SUB SWAP1 LOG2 PUSH1 0x1 DUP1 DUP5 ADD SLOAD PUSH1 0x40 MLOAD PUSH1 0x1 PUSH1 0x1 PUSH1 0xA0 SHL SUB SWAP1 SWAP2 AND SWAP2 DUP10 SWAP2 PUSH32 0xFA9CCD77157BDFAB71FEF6447E120094B3101FE9CF7DE8CED3B02B49130FDC7B SWAP2 PUSH2 0x7FE SWAP2 DUP8 SWAP1 DUP12 SWAP1 DUP12 SWAP1 PUSH2 0xBEC JUMP JUMPDEST PUSH1 0x40 MLOAD DUP1 SWAP2 SUB SWAP1 LOG3 POP PUSH2 0x8E4 JUMP JUMPDEST DUP2 SLOAD PUSH1 0x40 MLOAD PUSH0 SWAP2 PUSH1 0x1 PUSH1 0x1 PUSH1 0xA0 SHL SUB AND SWAP1 DUP4 SWAP1 DUP4 DUP2 DUP2 DUP2 DUP6 DUP8 GAS CALL SWAP3 POP POP POP RETURNDATASIZE DUP1 PUSH0 DUP2 EQ PUSH2 0x855 JUMPI PUSH1 0x40 MLOAD SWAP2 POP PUSH1 0x1F NOT PUSH1 0x3F RETURNDATASIZE ADD AND DUP3 ADD PUSH1 0x40 MSTORE RETURNDATASIZE DUP3 MSTORE RETURNDATASIZE PUSH0 PUSH1 0x20 DUP5 ADD RETURNDATACOPY PUSH2 0x85A JUMP JUMPDEST PUSH1 0x60 SWAP2 POP JUMPDEST POP POP SWAP1 POP DUP1 PUSH2 0x894 JUMPI PUSH1 0x40 MLOAD PUSH3 0x461BCD PUSH1 0xE5 SHL DUP2 MSTORE PUSH1 0x20 PUSH1 0x4 DUP3 ADD MSTORE PUSH1 0x6 PUSH1 0x24 DUP3 ADD MSTORE PUSH6 0x1C99599D5B99 PUSH1 0xD2 SHL PUSH1 0x44 DUP3 ADD MSTORE PUSH1 0x64 ADD PUSH2 0x747 JUMP JUMPDEST DUP3 SLOAD PUSH1 0x40 MLOAD PUSH1 0x1 PUSH1 0x1 PUSH1 0xA0 SHL SUB SWAP1 SWAP2 AND SWAP1 DUP9 SWAP1 PUSH32 0xFA9CCD77157BDFAB71FEF6447E120094B3101FE9CF7DE8CED3B02B49130FDC7B SWAP1 PUSH2 0x8DA SWAP1 PUSH0 SWAP1 DUP8 SWAP1 DUP12 SWAP1 DUP12 SWAP1 PUSH2 0xBEC JUMP JUMPDEST PUSH1 0x40 MLOAD DUP1 SWAP2 SUB SWAP1 LOG3 POP JUMPDEST POP POP POP POP POP POP JUMP JUMPDEST PUSH0 DUP2 DUP2 MSTORE PUSH1 0x4 PUSH1 0x20 MSTORE PUSH1 0x40 SWAP1 KECCAK256 DUP1 SLOAD PUSH1 0x1 PUSH1 0x1 PUSH1 0xA0 SHL SUB AND PUSH2 0x921 JUMPI PUSH1 0x40 MLOAD PUSH4 0x183C195 PUSH1 0xE7 SHL DUP2 MSTORE PUSH1 0x4 ADD PUSH1 0x40 MLOAD DUP1 SWAP2 SUB SWAP1 REVERT JUMPDEST PUSH1 0x4 DUP2 ADD SLOAD PUSH1 0xFF AND ISZERO PUSH2 0x946 JUMPI PUSH1 0x40 MLOAD PUSH3 0x560FF9 PUSH1 0xE8 SHL DUP2 MSTORE PUSH1 0x4 ADD PUSH1 0x40 MLOAD DUP1 SWAP2 SUB SWAP1 REVERT JUMPDEST PUSH3 0x15180 DUP2 PUSH1 0x3 ADD SLOAD PUSH2 0x959 SWAP2 SWAP1 PUSH2 0xC2A JUMP JUMPDEST TIMESTAMP GT PUSH2 0x978 JUMPI PUSH1 0x40 MLOAD PUSH4 0x19DDAD0F PUSH1 0xE3 SHL DUP2 MSTORE PUSH1 0x4 ADD PUSH1 0x40 MLOAD DUP1 SWAP2 SUB SWAP1 REVERT JUMPDEST PUSH1 0x4 DUP2 ADD DUP1 SLOAD PUSH1 0xFF NOT AND PUSH1 0x1 OR SWAP1 SSTORE PUSH1 0x2 DUP2 ADD SLOAD DUP2 SLOAD PUSH1 0x40 MLOAD PUSH0 SWAP2 PUSH1 0x1 PUSH1 0x1 PUSH1 0xA0 SHL SUB AND SWAP1 DUP4 SWAP1 DUP4 DUP2 DUP2 DUP2 DUP6 DUP8 GAS CALL SWAP3 POP POP POP RETURNDATASIZE DUP1 PUSH0 DUP2 EQ PUSH2 0x9D5 JUMPI PUSH1 0x40 MLOAD SWAP2 POP PUSH1 0x1F NOT PUSH1 0x3F RETURNDATASIZE ADD AND DUP3 ADD PUSH1 0x40 MSTORE RETURNDATASIZE DUP3 MSTORE RETURNDATASIZE PUSH0 PUSH1 0x20 DUP5 ADD RETURNDATACOPY PUSH2 0x9DA JUMP JUMPDEST PUSH1 0x60 SWAP2 POP JUMPDEST POP POP SWAP1 POP DUP1 PUSH2 0xA14 JUMPI PUSH1 0x40 MLOAD PUSH3 0x461BCD PUSH1 0xE5 SHL DUP2 MSTORE PUSH1 0x20 PUSH1 0x4 DUP3 ADD MSTORE PUSH1 0x6 PUSH1 0x24 DUP3 ADD MSTORE PUSH6 0x1C99599D5B99 PUSH1 0xD2 SHL PUSH1 0x44 DUP3 ADD MSTORE PUSH1 0x64 ADD PUSH2 0x747 JUMP JUMPDEST DUP3 SLOAD PUSH1 0x40 MLOAD DUP4 DUP2 MSTORE PUSH1 0x1 PUSH1 0x1 PUSH1 0xA0 SHL SUB SWAP1 SWAP2 AND SWAP1 DUP6 SWAP1 PUSH32 0x730FB68BEA82A92BED53BC81F1E5DE788FDA6B880BE2BF0966C7417E44B28E4B SWAP1 PUSH1 0x20 ADD PUSH1 0x40 MLOAD DUP1 SWAP2 SUB SWAP1 LOG3 POP POP POP POP JUMP JUMPDEST DUP1 CALLDATALOAD PUSH1 0x1 PUSH1 0x1 PUSH1 0xA0 SHL SUB DUP2 AND DUP2 EQ PUSH2 0xA73 JUMPI PUSH0 DUP1 REVERT JUMPDEST SWAP2 SWAP1 POP JUMP JUMPDEST PUSH0 DUP1 PUSH1 0x40 DUP4 DUP6 SUB SLT ISZERO PUSH2 0xA89 JUMPI PUSH0 DUP1 REVERT JUMPDEST PUSH2 0xA92 DUP4 PUSH2 0xA5D JUMP JUMPDEST SWAP5 PUSH1 0x20 SWAP4 SWAP1 SWAP4 ADD CALLDATALOAD SWAP4 POP POP POP JUMP JUMPDEST PUSH0 PUSH1 0x20 DUP3 DUP5 SUB SLT ISZERO PUSH2 0xAB0 JUMPI PUSH0 DUP1 REVERT JUMPDEST POP CALLDATALOAD SWAP2 SWAP1 POP JUMP JUMPDEST PUSH0 DUP1 DUP4 PUSH1 0x1F DUP5 ADD SLT PUSH2 0xAC7 JUMPI PUSH0 DUP1 REVERT JUMPDEST POP DUP2 CALLDATALOAD PUSH8 0xFFFFFFFFFFFFFFFF DUP2 GT ISZERO PUSH2 0xADE JUMPI PUSH0 DUP1 REVERT JUMPDEST PUSH1 0x20 DUP4 ADD SWAP2 POP DUP4 PUSH1 0x20 DUP3 DUP6 ADD ADD GT ISZERO PUSH2 0xAF5 JUMPI PUSH0 DUP1 REVERT JUMPDEST SWAP3 POP SWAP3 SWAP1 POP JUMP JUMPDEST PUSH0 DUP1 PUSH0 PUSH1 0x40 DUP5 DUP7 SUB SLT ISZERO PUSH2 0xB0E JUMPI PUSH0 DUP1 REVERT JUMPDEST DUP4 CALLDATALOAD SWAP3 POP PUSH1 0x20 DUP5 ADD CALLDATALOAD PUSH8 0xFFFFFFFFFFFFFFFF DUP2 GT ISZERO PUSH2 0xB2B JUMPI PUSH0 DUP1 REVERT JUMPDEST PUSH2 0xB37 DUP7 DUP3 DUP8 ADD PUSH2 0xAB7 JUMP JUMPDEST SWAP5 SWAP8 SWAP1 SWAP7 POP SWAP4 SWAP5 POP POP POP POP JUMP JUMPDEST PUSH0 PUSH1 0x20 DUP3 DUP5 SUB SLT ISZERO PUSH2 0xB54 JUMPI PUSH0 DUP1 REVERT JUMPDEST PUSH2 0xB5D DUP3 PUSH2 0xA5D JUMP JUMPDEST SWAP4 SWAP3 POP POP POP JUMP JUMPDEST PUSH0 DUP1 PUSH0 DUP1 PUSH1 0x60 DUP6 DUP8 SUB SLT ISZERO PUSH2 0xB77 JUMPI PUSH0 DUP1 REVERT JUMPDEST DUP5 CALLDATALOAD SWAP4 POP PUSH1 0x20 DUP6 ADD CALLDATALOAD DUP1 ISZERO ISZERO DUP2 EQ PUSH2 0xB8D JUMPI PUSH0 DUP1 REVERT JUMPDEST SWAP3 POP PUSH1 0x40 DUP6 ADD CALLDATALOAD PUSH8 0xFFFFFFFFFFFFFFFF DUP2 GT ISZERO PUSH2 0xBA8 JUMPI PUSH0 DUP1 REVERT JUMPDEST PUSH2 0xBB4 DUP8 DUP3 DUP9 ADD PUSH2 0xAB7 JUMP JUMPDEST SWAP6 SWAP9 SWAP5 SWAP8 POP SWAP6 POP POP POP POP JUMP JUMPDEST PUSH4 0x4E487B71 PUSH1 0xE0 SHL PUSH0 MSTORE PUSH1 0x11 PUSH1 0x4 MSTORE PUSH1 0x24 PUSH0 REVERT JUMPDEST PUSH0 PUSH1 0x1 DUP3 ADD PUSH2 0xBE5 JUMPI PUSH2 0xBE5 PUSH2 0xBC0 JUMP JUMPDEST POP PUSH1 0x1 ADD SWAP1 JUMP JUMPDEST DUP5 ISZERO ISZERO DUP2 MSTORE DUP4 PUSH1 0x20 DUP3 ADD MSTORE PUSH1 0x60 PUSH1 0x40 DUP3 ADD MSTORE DUP2 PUSH1 0x60 DUP3 ADD MSTORE DUP2 DUP4 PUSH1 0x80 DUP4 ADD CALLDATACOPY PUSH0 DUP2 DUP4 ADD PUSH1 0x80 SWAP1 DUP2 ADD SWAP2 SWAP1 SWAP2 MSTORE PUSH1 0x1F SWAP1 SWAP3 ADD PUSH1 0x1F NOT AND ADD ADD SWAP4 SWAP3 POP POP POP JUMP JUMPDEST DUP1 DUP3 ADD DUP1 DUP3 GT ISZERO PUSH2 0xC3D JUMPI PUSH2 0xC3D PUSH2 0xBC0 JUMP JUMPDEST SWAP3 SWAP2 POP POP JUMP INVALID LOG2 PUSH5 0x6970667358 0x22 SLT KECCAK256 DUP13 SWAP15 0x4B LOG1 KECCAK256 SELFBALANCE LT SGT RETURN PUSH19 0xC8F35BF2373FF97356A99DF7B76E6115BCDC30 0xEC MUL 0xB7 PUSH5 0x736F6C6343 STOP ADDMOD EQ STOP CALLER "},"methodIdentifiers":{"REFUND_GRACE()":"cccc0be2","book(address,uint256)":"03efb5c4","bookings(uint256)":"1dab301e","completeMeeting(uint256,string)":"353dac75","createMeeting(address,uint256)":"2605c61d","executeOutcome(uint256,bool,string)":"ae6e0f97","getReputationScore(address)":"75a67d5c","increaseReputation(address)":"4f76dc61","nextBookingId()":"26f20c79","oracle()":"7dc0d1d0","owner()":"8da5cb5b","refundIfExpired(uint256)":"b094b961","reputation(address)":"b9f79451","requestRefund(uint256)":"a4b2409e","setOracle(address)":"7adbf973"}}}}}