{
  "_format": "hh3-artifact-1",
  "contractName": "ActionLog",
  "sourceName": "contracts/ActionLog.sol",
  "abi": [
    {
      "anonymous": false,
      "inputs": [
        {
          "indexed": true,
          "internalType": "uint256",
          "name": "actionId",
          "type": "uint256"
        },
        {
          "indexed": true,
          "internalType": "address",
          "name": "actor",
          "type": "address"
        },
        {
          "indexed": false,
          "internalType": "bytes32",
          "name": "taskHash",
          "type": "bytes32"
        },
        {
          "indexed": false,
          "internalType": "string",
          "name": "result",
          "type": "string"
        }
      ],
      "name": "ActionLogged",
      "type": "event"
    },
    {
      "inputs": [
        {
          "internalType": "uint256",
          "name": "",
          "type": "uint256"
        }
      ],
      "name": "actions",
      "outputs": [
        {
          "internalType": "address",
          "name": "actor",
          "type": "address"
        },
        {
          "internalType": "bytes32",
          "name": "taskHash",
          "type": "bytes32"
        },
        {
          "internalType": "string",
          "name": "result",
          "type": "string"
        },
        {
          "internalType": "uint64",
          "name": "timestamp",
          "type": "uint64"
        }
      ],
      "stateMutability": "view",
      "type": "function"
    },
    {
      "inputs": [],
      "name": "count",
      "outputs": [
        {
          "internalType": "uint256",
          "name": "",
          "type": "uint256"
        }
      ],
      "stateMutability": "view",
      "type": "function"
    },
    {
      "inputs": [
        {
          "internalType": "bytes32",
          "name": "taskHash",
          "type": "bytes32"
        },
        {
          "internalType": "string",
          "name": "result",
          "type": "string"
        }
      ],
      "name": "logAction",
      "outputs": [
        {
          "internalType": "uint256",
          "name": "actionId",
          "type": "uint256"
        }
      ],
      "stateMutability": "nonpayable",
      "type": "function"
    }
  ],
  "bytecode": "0x608060405234801561000f575f80fd5b5061053d8061001d5f395ff3fe608060405234801561000f575f80fd5b506004361061003f575f3560e01c806306661abd1461004357806383240f831461005f578063f3191ecd14610082575b5f80fd5b61004c60015481565b6040519081526020015b60405180910390f35b61007261006d366004610241565b610095565b604051610056949392919061029b565b61004c6100903660046102f0565b610157565b5f602081905290815260409020805460018201546002830180546001600160a01b039093169391926100c6906103a5565b80601f01602080910402602001604051908101604052809291908181526020018280546100f2906103a5565b801561013d5780601f106101145761010080835404028352916020019161013d565b820191905f5260205f20905b81548152906001019060200180831161012057829003601f168201915b5050506003909301549192505067ffffffffffffffff1684565b6001805481018082556040805160808101825233815260208082018781528284018781524267ffffffffffffffff1660608501525f8681529283905293909120825181546001600160a01b0319166001600160a01b0390911617815590519481019490945590519192909160028201906101d1908261042b565b50606091909101516003909101805467ffffffffffffffff191667ffffffffffffffff909216919091179055604051339082907fb6e9c3abef6ccdba8c471cd6d84648c179378631a585153d297ead2536bb95db9061023390879087906104e7565b60405180910390a392915050565b5f60208284031215610251575f80fd5b5035919050565b5f81518084525f5b8181101561027c57602081850181015186830182015201610260565b505f602082860101526020601f19601f83011685010191505092915050565b60018060a01b0385168152836020820152608060408201525f6102c16080830185610258565b905067ffffffffffffffff8316606083015295945050505050565b634e487b7160e01b5f52604160045260245ffd5b5f8060408385031215610301575f80fd5b82359150602083013567ffffffffffffffff8082111561031f575f80fd5b818501915085601f830112610332575f80fd5b813581811115610344576103446102dc565b604051601f8201601f19908116603f0116810190838211818310171561036c5761036c6102dc565b81604052828152886020848701011115610384575f80fd5b826020860160208301375f6020848301015280955050505050509250929050565b600181811c908216806103b957607f821691505b6020821081036103d757634e487b7160e01b5f52602260045260245ffd5b50919050565b601f821115610426575f81815260208120601f850160051c810160208610156104035750805b601f850160051c820191505b818110156104225782815560010161040f565b5050505b505050565b815167ffffffffffffffff811115610445576104456102dc565b6104598161045384546103a5565b846103dd565b602080601f83116001811461048c575f84156104755750858301515b5f19600386901b1c1916600185901b178555610422565b5f85815260208120601f198616915b828110156104ba5788860151825594840194600190910190840161049b565b50858210156104d757878501515f19600388901b60f8161c191681555b5050505050600190811b01905550565b828152604060208201525f6104ff6040830184610258565b94935050505056fea2646970667358221220941c70e4b327fffd31dfc63cb52e4fffd1392d8cf7bf3c1907deebbc17af4dc064736f6c63430008140033",
  "linkReferences": {},
  "deployedLinkReferences": {},
  "immutableReferences": {},
  "inputSourceName": "project/contracts/ActionLog.sol",
  "buildInfoId": "solc-0_8_20-768e81bfaccba59e19ca1c2368f316c816dbeb60"
}