{
  "_format": "hh3-artifact-1",
  "contractName": "TrustAgent",
  "sourceName": "contracts/TrustAgent.sol",
  "abi": [
    {
      "inputs": [
        {
          "internalType": "address",
          "name": "oracle_",
          "type": "address"
        }
      ],
      "stateMutability": "nonpayable",
      "type": "constructor"
    },
    {
      "inputs": [],
      "name": "AlreadySettled",
      "type": "error"
    },
    {
      "inputs": [],
      "name": "BadEmployee",
      "type": "error"
    },
    {
      "inputs": [],
      "name": "InvalidBooking",
      "type": "error"
    },
    {
      "inputs": [],
      "name": "NotOracle",
      "type": "error"
    },
    {
      "inputs": [],
      "name": "NotOwner",
      "type": "error"
    },
    {
      "inputs": [],
      "name": "TooEarlyForRefund",
      "type": "error"
    },
    {
      "anonymous": false,
      "inputs": [
        {
          "indexed": true,
          "internalType": "uint256",
          "name": "bookingId",
          "type": "uint256"
        },
        {
          "indexed": true,
          "internalType": "address",
          "name": "company",
          "type": "address"
        },
        {
          "indexed": true,
          "internalType": "address",
          "name": "employee",
          "type": "address"
        },
        {
          "indexed": false,
          "internalType": "uint256",
          "name": "amount",
          "type": "uint256"
        },
        {
          "indexed": false,
          "internalType": "uint256",
          "name": "meetingEnd",
          "type": "uint256"
        }
      ],
      "name": "Booked",
      "type": "event"
    },
    {
      "anonymous": false,
      "inputs": [
        {
          "indexed": true,
          "internalType": "uint256",
          "name": "bookingId",
          "type": "uint256"
        },
        {
          "indexed": false,
          "internalType": "bool",
          "name": "meetingSuccessful",
          "type": "bool"
        },
        {
          "indexed": true,
          "internalType": "address",
          "name": "beneficiary",
          "type": "address"
        },
        {
          "indexed": false,
          "internalType": "uint256",
          "name": "amount",
          "type": "uint256"
        },
        {
          "indexed": false,
          "internalType": "string",
          "name": "reason",
          "type": "string"
        }
      ],
      "name": "OutcomeSettled",
      "type": "event"
    },
    {
      "anonymous": false,
      "inputs": [
        {
          "indexed": true,
          "internalType": "uint256",
          "name": "bookingId",
          "type": "uint256"
        },
        {
          "indexed": true,
          "internalType": "address",
          "name": "company",
          "type": "address"
        },
        {
          "indexed": false,
          "internalType": "uint256",
          "name": "amount",
          "type": "uint256"
        }
      ],
      "name": "RefundedExpired",
      "type": "event"
    },
    {
      "anonymous": false,
      "inputs": [
        {
          "indexed": true,
          "internalType": "address",
          "name": "user",
          "type": "address"
        },
        {
          "indexed": false,
          "internalType": "uint256",
          "name": "newTotal",
          "type": "uint256"
        }
      ],
      "name": "ReputationIncreased",
      "type": "event"
    },
    {
      "inputs": [],
      "name": "REFUND_GRACE",
      "outputs": [
        {
          "internalType": "uint256",
          "name": "",
          "type": "uint256"
        }
      ],
      "stateMutability": "view",
      "type": "function"
    },
    {
      "inputs": [
        {
          "internalType": "address",
          "name": "employee",
          "type": "address"
        },
        {
          "internalType": "uint256",
          "name": "meetingEnd",
          "type": "uint256"
        }
      ],
      "name": "book",
      "outputs": [],
      "stateMutability": "payable",
      "type": "function"
    },
    {
      "inputs": [
        {
          "internalType": "uint256",
          "name": "",
          "type": "uint256"
        }
      ],
      "name": "bookings",
      "outputs": [
        {
          "internalType": "address",
          "name": "company",
          "type": "address"
        },
        {
          "internalType": "address",
          "name": "employee",
          "type": "address"
        },
        {
          "internalType": "uint256",
          "name": "amount",
          "type": "uint256"
        },
        {
          "internalType": "uint256",
          "name": "meetingEnd",
          "type": "uint256"
        },
        {
          "internalType": "bool",
          "name": "settled",
          "type": "bool"
        }
      ],
      "stateMutability": "view",
      "type": "function"
    },
    {
      "inputs": [
        {
          "internalType": "uint256",
          "name": "bookingId",
          "type": "uint256"
        },
        {
          "internalType": "string",
          "name": "reason",
          "type": "string"
        }
      ],
      "name": "completeMeeting",
      "outputs": [],
      "stateMutability": "nonpayable",
      "type": "function"
    },
    {
      "inputs": [
        {
          "internalType": "address",
          "name": "employee",
          "type": "address"
        },
        {
          "internalType": "uint256",
          "name": "meetingEnd",
          "type": "uint256"
        }
      ],
      "name": "createMeeting",
      "outputs": [],
      "stateMutability": "payable",
      "type": "function"
    },
    {
      "inputs": [
        {
          "internalType": "uint256",
          "name": "bookingId",
          "type": "uint256"
        },
        {
          "internalType": "bool",
          "name": "meetingSuccessful",
          "type": "bool"
        },
        {
          "internalType": "string",
          "name": "reason",
          "type": "string"
        }
      ],
      "name": "executeOutcome",
      "outputs": [],
      "stateMutability": "nonpayable",
      "type": "function"
    },
    {
      "inputs": [
        {
          "internalType": "address",
          "name": "user",
          "type": "address"
        }
      ],
      "name": "getReputationScore",
      "outputs": [
        {
          "internalType": "uint256",
          "name": "",
          "type": "uint256"
        }
      ],
      "stateMutability": "view",
      "type": "function"
    },
    {
      "inputs": [
        {
          "internalType": "address",
          "name": "user",
          "type": "address"
        }
      ],
      "name": "increaseReputation",
      "outputs": [],
      "stateMutability": "nonpayable",
      "type": "function"
    },
    {
      "inputs": [],
      "name": "nextBookingId",
      "outputs": [
        {
          "internalType": "uint256",
          "name": "",
          "type": "uint256"
        }
      ],
      "stateMutability": "view",
      "type": "function"
    },
    {
      "inputs": [],
      "name": "oracle",
      "outputs": [
        {
          "internalType": "address",
          "name": "",
          "type": "address"
        }
      ],
      "stateMutability": "view",
      "type": "function"
    },
    {
      "inputs": [],
      "name": "owner",
      "outputs": [
        {
          "internalType": "address",
          "name": "",
          "type": "address"
        }
      ],
      "stateMutability": "view",
      "type": "function"
    },
    {
      "inputs": [
        {
          "internalType": "uint256",
          "name": "bookingId",
          "type": "uint256"
        }
      ],
      "name": "refundIfExpired",
      "outputs": [],
      "stateMutability": "nonpayable",
      "type": "function"
    },
    {
      "inputs": [
        {
          "internalType": "address",
          "name": "",
          "type": "address"
        }
      ],
      "name": "reputation",
      "outputs": [
        {
          "internalType": "uint256",
          "name": "",
          "type": "uint256"
        }
      ],
      "stateMutability": "view",
      "type": "function"
    },
    {
      "inputs": [
        {
          "internalType": "uint256",
          "name": "bookingId",
          "type": "uint256"
        }
      ],
      "name": "requestRefund",
      "outputs": [],
      "stateMutability": "nonpayable",
      "type": "function"
    },
    {
      "inputs": [
        {
          "internalType": "address",
          "name": "o",
          "type": "address"
        }
      ],
      "name": "setOracle",
      "outputs": [],
      "stateMutability": "nonpayable",
      "type": "function"
    }
  ],
  "bytecode": "0x608060405234801561000f575f80fd5b50604051610d13380380610d1383398101604081905261002e91610060565b5f8054336001600160a01b031991821617909155600180549091166001600160a01b039290921691909117905561008d565b5f60208284031215610070575f80fd5b81516001600160a01b0381168114610086575f80fd5b9392505050565b610c798061009a5f395ff3fe6080604052600436106100e4575f3560e01c80637adbf97311610087578063ae6e0f9711610057578063ae6e0f97146102b7578063b094b96114610298578063b9f79451146102d6578063cccc0be214610301575f80fd5b80637adbf973146102245780637dc0d1d0146102435780638da5cb5b1461027a578063a4b2409e14610298575f80fd5b806326f20c79116100c257806326f20c791461018f578063353dac75146101b25780634f76dc61146101d157806375a67d5c146101f0575f80fd5b806303efb5c4146100e85780631dab301e146100fd5780632605c61d146100e8575b5f80fd5b6100fb6100f6366004610a78565b610317565b005b348015610108575f80fd5b50610155610117366004610aa0565b600460208190525f9182526040909120805460018201546002830154600384015493909401546001600160a01b039283169492909116929060ff1685565b604080516001600160a01b0396871681529590941660208601529284019190915260608301521515608082015260a0015b60405180910390f35b34801561019a575f80fd5b506101a460035481565b604051908152602001610186565b3480156101bd575f80fd5b506100fb6101cc366004610afc565b61034b565b3480156101dc575f80fd5b506100fb6101eb366004610b44565b6103b1565b3480156101fb575f80fd5b506101a461020a366004610b44565b6001600160a01b03165f9081526002602052604090205490565b34801561022f575f80fd5b506100fb61023e366004610b44565b610433565b34801561024e575f80fd5b50600154610262906001600160a01b031681565b6040516001600160a01b039091168152602001610186565b348015610285575f80fd5b505f54610262906001600160a01b031681565b3480156102a3575f80fd5b506100fb6102b2366004610aa0565b61047f565b3480156102c2575f80fd5b506100fb6102d1366004610b64565b6104b1565b3480156102e1575f80fd5b506101a46102f0366004610b44565b60026020525f908152604090205481565b34801561030c575f80fd5b506101a46201518081565b60055460ff1615610326575f80fd5b6005805460ff1916600117905561033d8282610514565b50506005805460ff19169055565b6001546001600160a01b0316331461037657604051631bc2178f60e01b815260040160405180910390fd5b60055460ff1615610385575f80fd5b6005805460ff191660019081179091556103a2908490848461064f565b50506005805460ff1916905550565b6001546001600160a01b031633146103dc57604051631bc2178f60e01b815260040160405180910390fd5b6001600160a01b0381165f818152600260209081526040918290208054600a019081905591519182527ffac498e7ee7d43e382528bf22afd838a7c6abfa5f54e7c564f7e5a54a18ca34c910160405180910390a250565b5f546001600160a01b0316331461045d576040516330cd747160e01b815260040160405180910390fd5b600180546001600160a01b0319166001600160a01b0392909216919091179055565b60055460ff161561048e575f80fd5b6005805460ff191660011790556104a4816108ec565b506005805460ff19169055565b6001546001600160a01b031633146104dc57604051631bc2178f60e01b815260040160405180910390fd5b60055460ff16156104eb575f80fd5b6005805460ff191660011790556105048484848461064f565b50506005805460ff191690555050565b345f0361051f575f80fd5b6001600160a01b038216158061053d57506001600160a01b03821633145b1561055b5760405163d818965360e01b815260040160405180910390fd5b428111610566575f80fd5b5f60035f815461057590610bd4565b91829055506040805160a081018252338082526001600160a01b03878116602080850182815234868801818152606088018c81525f60808a018181528c82526004808852918c90209a518b546001600160a01b0319908116918b16919091178c55955160018c0180549097169916989098179094559051600289015551600388015593519501805460ff19169515159590951790945584519182529281018790529394509092909184917f314b986a080e4351ebdc4224511f089c3797c6da1326f960829bd2f175da15a3910160405180910390a4505050565b5f84815260046020526040902080546001600160a01b031661068457604051630183c19560e71b815260040160405180910390fd5b600481015460ff16156106a95760405162560ff960e81b815260040160405180910390fd5b60048101805460ff191660011790556002810154841561080c5760018201546040515f916001600160a01b03169083908381818185875af1925050503d805f811461070f576040519150601f19603f3d011682016040523d82523d5f602084013e610714565b606091505b50509050806107505760405162461bcd60e51b815260206004820152600360248201526270617960e81b60448201526064015b60405180910390fd5b6001830180546001600160a01b039081165f9081526002602090815260408083208054600a019055935490921680825290839020549251928352917ffac498e7ee7d43e382528bf22afd838a7c6abfa5f54e7c564f7e5a54a18ca34c910160405180910390a26001808401546040516001600160a01b039091169189917ffa9ccd77157bdfab71fef6447e120094b3101fe9cf7de8ced3b02b49130fdc7b916107fe9187908b908b90610bec565b60405180910390a3506108e4565b81546040515f916001600160a01b03169083908381818185875af1925050503d805f8114610855576040519150601f19603f3d011682016040523d82523d5f602084013e61085a565b606091505b50509050806108945760405162461bcd60e51b81526020600482015260066024820152651c99599d5b9960d21b6044820152606401610747565b82546040516001600160a01b039091169088907ffa9ccd77157bdfab71fef6447e120094b3101fe9cf7de8ced3b02b49130fdc7b906108da905f9087908b908b90610bec565b60405180910390a3505b505050505050565b5f81815260046020526040902080546001600160a01b031661092157604051630183c19560e71b815260040160405180910390fd5b600481015460ff16156109465760405162560ff960e81b815260040160405180910390fd5b6201518081600301546109599190610c2a565b4211610978576040516319ddad0f60e31b815260040160405180910390fd5b60048101805460ff19166001179055600281015481546040515f916001600160a01b03169083908381818185875af1925050503d805f81146109d5576040519150601f19603f3d011682016040523d82523d5f602084013e6109da565b606091505b5050905080610a145760405162461bcd60e51b81526020600482015260066024820152651c99599d5b9960d21b6044820152606401610747565b82546040518381526001600160a01b039091169085907f730fb68bea82a92bed53bc81f1e5de788fda6b880be2bf0966c7417e44b28e4b9060200160405180910390a350505050565b80356001600160a01b0381168114610a73575f80fd5b919050565b5f8060408385031215610a89575f80fd5b610a9283610a5d565b946020939093013593505050565b5f60208284031215610ab0575f80fd5b5035919050565b5f8083601f840112610ac7575f80fd5b50813567ffffffffffffffff811115610ade575f80fd5b602083019150836020828501011115610af5575f80fd5b9250929050565b5f805f60408486031215610b0e575f80fd5b83359250602084013567ffffffffffffffff811115610b2b575f80fd5b610b3786828701610ab7565b9497909650939450505050565b5f60208284031215610b54575f80fd5b610b5d82610a5d565b9392505050565b5f805f8060608587031215610b77575f80fd5b8435935060208501358015158114610b8d575f80fd5b9250604085013567ffffffffffffffff811115610ba8575f80fd5b610bb487828801610ab7565b95989497509550505050565b634e487b7160e01b5f52601160045260245ffd5b5f60018201610be557610be5610bc0565b5060010190565b841515815283602082015260606040820152816060820152818360808301375f818301608090810191909152601f909201601f191601019392505050565b80820180821115610c3d57610c3d610bc0565b9291505056fea26469706673582212208c9e4ba120471013f372c8f35bf2373ff97356a99df7b76e6115bcdc30ec02b764736f6c63430008140033",
  "linkReferences": {},
  "deployedLinkReferences": {},
  "immutableReferences": {},
  "inputSourceName": "project/contracts/TrustAgent.sol",
  "buildInfoId": "solc-0_8_20-e58e4500c3a760a8160d63dc82033eeba6396f0d"
}